:100000000C9435000C945D000C945D000C945D0024
:100010000C945D000C945D000C945D000C945D00EC
:100020000C945D000C945D000C945D000C945D00DC
:100030000C945D000C945D000C945D000C945D00CC
:100040000C94E9010C945D000C94B7010C9491019F
:100050000C945D000C945D000C945D000C945D00AC
:100060000C945D000C945D00910311241FBECFEF32
:10007000D8E0DEBFCDBF11E0A0E0B1E0ECE8F7E0F2
:1000800002C005900D92AE32B107D9F721E0AEE281
:10009000B1E001C01D92A43DB207E1F710E0C5E355
:1000A000D0E004C02197FE010E94BE03C433D107F3
:1000B000C9F70E9433020C94C4030C940000AF9261
:1000C000BF92CF92DF92EF92FF920F931F93CF9345
:1000D000DF936C017B018B01040F151FEB015E01A7
:1000E000AE18BF08C017D10759F06991D601ED913C
:1000F000FC910190F081E02DC6010995892B79F7DB
:10010000C501DF91CF911F910F91FF90EF90DF908C
:10011000CF90BF90AF900895FC01538D448D252F53
:1001200030E0842F90E0821B930B541710F0CF9691
:10013000089501970895FC01918D828D981761F0C3
:10014000A28DAE0FBF2FB11D5D968C91928D9F5FDA
:100150009F73928F90E008958FEF9FEF0895FC01B9
:10016000918D828D981731F0828DE80FF11D858D6C
:1001700090E008958FEF9FEF0895FC01918D228DFF
:10018000892F90E0805C9F4F821B91098F73992784
:10019000089587E391E00E94BD0021E0892B09F4D6
:1001A00020E0822F089580E090E0892B29F00E94C2
:1001B000C90081110C9400000895FC01A48DA80FC2
:1001C000B92FB11DA35ABF4F2C91848D90E0019699
:1001D0008F739927848FA689B7892C93A089B189B9
:1001E0008C91837080648C93938D848D981306C05A
:1001F0000288F389E02D80818F7D80830895EF92BE
:10020000FF920F931F93CF93DF93EC0181E0888FD0
:100210009B8D8C8D98131AC0E889F989808185FFA0
:1002200015C09FB7F894EE89FF896083E889F98942
:1002300080818370806480839FBF81E090E0DF9144
:10024000CF911F910F91FF90EF900895F62E0B8D97
:1002500010E00F5F1F4F0F731127E02E8C8D8E1152
:100260000CC00FB607FCFACFE889F989808185FFB9
:10027000F5CFCE010E94DD00F1CFEB8DEC0FFD2F0D
:10028000F11DE35AFF4FF0829FB7F8940B8FEA8974
:10029000FB8980818062CFCFCF93DF93EC01888D83
:1002A0008823B9F0AA89BB89E889F9898C9185FDF1
:1002B00003C0808186FD0DC00FB607FCF7CF8C917F
:1002C00085FFF2CF808185FFEDCFCE010E94DD005A
:1002D000E9CFDF91CF9108953FB7F89480912F0136
:1002E00090913001A0913101B091320126B5A89BC7
:1002F00005C02F3F19F00196A11DB11D3FBFBA2FB8
:10030000A92F982F8827BC01CD01620F711D811D77
:10031000911D42E0660F771F881F991F4A95D1F7FC
:1003200008951F920F920FB60F9211242F933F93AF
:100330004F935F936F937F938F939F93AF93BF93ED
:10034000EF93FF9387E391E00E94DD00FF91EF912F
:10035000BF91AF919F918F917F916F915F914F91DD
:100360003F912F910F900FBE0F901F9018951F92E5
:100370000F920FB60F9211242F938F939F93EF93A9
:10038000FF93E0914701F09148018081E0914D0198
:10039000F0914E0182FD1BC09081809150018F5FD2
:1003A0008F7320915101821741F0E0915001F0E0EC
:1003B000E95CFE4F958F80935001FF91EF919F91E3
:1003C0008F912F910F900FBE0F901F9018958081E5
:1003D000F4CF1F920F920FB60F9211242F933F93D9
:1003E0008F939F93AF93BF9380913301909134018A
:1003F000A0913501B091360130912E0123E0230FF9
:100400002D3758F50196A11DB11D20932E01809323
:10041000330190933401A0933501B093360180915C
:100420002F0190913001A0913101B09132010196DC
:10043000A11DB11D80932F0190933001A093310134
:10044000B0933201BF91AF919F918F913F912F91C6
:100450000F900FBE0F901F90189526E8230F02965D
:10046000A11DB11DD2CFCF93DF93CDB7DEB7CF5F44
:10047000D1090FB6F894DEBF0FBECDBF789484B516
:10048000826084BD84B5816084BD85B5826085BD90
:1004900085B5816085BD80916E00816080936E001E
:1004A0001092810080918100826080938100809110
:1004B00081008160809381008091800081608093C1
:1004C00080008091B10084608093B1008091B00081
:1004D00081608093B00080917A00846080937A007C
:1004E00080917A00826080937A0080917A008160A6
:1004F00080937A0080917A00806880937A001092CD
:10050000C10014B897E0292E312C29EAE22EF12CF3
:1005100030E0C32E30E0D32E90E080E043B1910173
:10052000281B390BB70102C0759567952A95E2F72C
:100530009B01242720FDE9C00196A7ECB0E01197AC
:10054000F1F700C000008830910541F78FB7F894AB
:100550004090330150903401609035017090360125
:100560008FBFB12C2FB7F894809133019091340153
:10057000A0913501B09136012FBF84199509A609C4
:10058000B7098D329140A105B10518F5E1E0F0E021
:10059000EC0FFD1FEB0DF11D108227E030E083B161
:1005A000082F017010E0A801022E01C0440F0A9428
:1005B000EAF78081842B8083A7ECB0E01197F1F7F4
:1005C00000C000002150310950F78F3F11F0B39463
:1005D000C9CFE0914701F091480122E02083E091EA
:1005E0004301F09144011082E0914501F0914601F0
:1005F00061E0608310924F01E0914B01F0914C015A
:1006000076E07083E0914901F0914A018081806138
:100610008083E0914901F0914A0180818860808364
:10062000E0914901F0914A01808180688083E091E6
:100630004901F0914A0180818F7D808348E150E03B
:1006400062E171E087E391E00E945F00A12CE1E0AC
:10065000F0E0EC0FFD1FEA0DF11D608187E391E0F2
:100660000E94FF00A394BA1490F742E050E06BE2BE
:1006700071E087E391E00E945F0087E391E00E94D0
:100680004C01E0914901F0914A0180818F7E808385
:10069000E0914901F0914A018081877F8083E09158
:1006A0004901F0914A0180818F778083E09149016F
:1006B000F0914A0180818F7D8083809151018093E8
:1006C00050010E946C012B013C0184E6882E912C84
:1006D000A12CB12C0E946C01641975098609970937
:1006E000683E734081059105A8F381E0881A91085E
:1006F000A108B10898EE490E93E0591E611C711CC7
:1007000081149104A104B10429F7C114D10409F49E
:1007100003CF0E94C900882309F4FECE0E94000086
:10072000FBCEE7E3F1E01382128288EE93E0A0E0D3
:10073000B0E084839583A683B78384E091E09183BE
:10074000808385EC90E09587848784EC90E09787A0
:10075000868780EC90E0918B808B81EC90E0938B8E
:10076000828B82EC90E0958B848B86EC90E0978B6B
:10077000868B118E128E138E148E0895EE0FFF1F2E
:0C0780000590F491E02D0994F894FFCF4F
:10078C0000000000FF005F008C004C01BD009B00CE
:10079C00AF00E58F97E4BFA1E38197E3819FE696D5
:0E07AC0087E5AD97E381AF2E2E2E000D0A00DB
:107E0000112484B714BE81FFF0D085E080938100F7
:107E100082E08093C00088E18093C10086E0809377
:107E2000C20080E18093C4008EE0C9D0259A86E02C
:107E300020E33CEF91E0309385002093840096BBD3
:107E4000B09BFECF1D9AA8958150A9F7CC24DD24C4
:107E500088248394B5E0AB2EA1E19A2EF3E0BF2EE7
:107E6000A2D0813461F49FD0082FAFD0023811F036
:107E7000013811F484E001C083E08DD089C08234E0
:107E800011F484E103C0853419F485E0A6D080C0E4
:107E9000853579F488D0E82EFF2485D0082F10E0AE
:107EA000102F00270E291F29000F111F8ED06801E7
:107EB0006FC0863521F484E090D080E0DECF843638
:107EC00009F040C070D06FD0082F6DD080E0C81688
:107ED00080E7D80618F4F601B7BEE895C0E0D1E017
:107EE00062D089930C17E1F7F0E0CF16F0E7DF06D8
:107EF00018F0F601B7BEE89568D007B600FCFDCFD4
:107F0000A601A0E0B1E02C9130E011968C91119780
:107F100090E0982F8827822B932B1296FA010C0160
:107F200087BEE89511244E5F5F4FF1E0A038BF0790
:107F300051F7F601A7BEE89507B600FCFDCF97BE46
:107F4000E89526C08437B1F42ED02DD0F82E2BD052
:107F50003CD0F601EF2C8F010F5F1F4F84911BD097
:107F6000EA94F801C1F70894C11CD11CFA94CF0C13
:107F7000D11C0EC0853739F428D08EE10CD085E9AC
:107F80000AD08FE07ACF813511F488E018D01DD067
:107F900080E101D065CF982F8091C00085FFFCCF94
:107FA0009093C60008958091C00087FFFCCF809118
:107FB000C00084FD01C0A8958091C6000895E0E648
:107FC000F0E098E1908380830895EDDF803219F02E
:107FD00088E0F5DFFFCF84E1DECF1F93182FE3DFCA
:107FE0001150E9F7F2DF1F91089580E0E8DFEE27F6
:047FF000FF270994CA
:027FFE00040479
:0400000300007E007B
:00000001FF
